{
  "abi": [
    {
      "inputs": [
        {
          "internalType": "contract Verifier",
          "name": "v",
          "type": "address"
        },
        {
          "internalType": "contract DKIMRegistry",
          "name": "d",
          "type": "address"
        }
      ],
      "stateMutability": "nonpayable",
      "type": "constructor"
    },
    {
      "anonymous": false,
      "inputs": [
        {
          "indexed": true,
          "internalType": "address",
          "name": "owner",
          "type": "address"
        },
        {
          "indexed": true,
          "internalType": "address",
          "name": "approved",
          "type": "address"
        },
        {
          "indexed": true,
          "internalType": "uint256",
          "name": "tokenId",
          "type": "uint256"
        }
      ],
      "name": "Approval",
      "type": "event"
    },
    {
      "anonymous": false,
      "inputs": [
        {
          "indexed": true,
          "internalType": "address",
          "name": "owner",
          "type": "address"
        },
        {
          "indexed": true,
          "internalType": "address",
          "name": "operator",
          "type": "address"
        },
        {
          "indexed": false,
          "internalType": "bool",
          "name": "approved",
          "type": "bool"
        }
      ],
      "name": "ApprovalForAll",
      "type": "event"
    },
    {
      "anonymous": false,
      "inputs": [
        {
          "indexed": true,
          "internalType": "address",
          "name": "from",
          "type": "address"
        },
        {
          "indexed": true,
          "internalType": "address",
          "name": "to",
          "type": "address"
        },
        {
          "indexed": true,
          "internalType": "uint256",
          "name": "tokenId",
          "type": "uint256"
        }
      ],
      "name": "Transfer",
      "type": "event"
    },
    {
      "inputs": [
        {
          "internalType": "uint256[]",
          "name": "headerSignals",
          "type": "uint256[]"
        }
      ],
      "name": "_domainCheck",
      "outputs": [
        {
          "internalType": "bool",
          "name": "",
          "type": "bool"
        }
      ],
      "stateMutability": "pure",
      "type": "function"
    },
    {
      "inputs": [],
      "name": "addressIndexInSignals",
      "outputs": [
        {
          "internalType": "uint32",
          "name": "",
          "type": "uint32"
        }
      ],
      "stateMutability": "view",
      "type": "function"
    },
    {
      "inputs": [
        {
          "internalType": "address",
          "name": "to",
          "type": "address"
        },
        {
          "internalType": "uint256",
          "name": "tokenId",
          "type": "uint256"
        }
      ],
      "name": "approve",
      "outputs": [],
      "stateMutability": "nonpayable",
      "type": "function"
    },
    {
      "inputs": [
        {
          "internalType": "address",
          "name": "owner",
          "type": "address"
        }
      ],
      "name": "balanceOf",
      "outputs": [
        {
          "internalType": "uint256",
          "name": "",
          "type": "uint256"
        }
      ],
      "stateMutability": "view",
      "type": "function"
    },
    {
      "inputs": [],
      "name": "bytesInPackedBytes",
      "outputs": [
        {
          "internalType": "uint16",
          "name": "",
          "type": "uint16"
        }
      ],
      "stateMutability": "view",
      "type": "function"
    },
    {
      "inputs": [
        {
          "internalType": "uint256",
          "name": "tokenId",
          "type": "uint256"
        }
      ],
      "name": "getApproved",
      "outputs": [
        {
          "internalType": "address",
          "name": "",
          "type": "address"
        }
      ],
      "stateMutability": "view",
      "type": "function"
    },
    {
      "inputs": [
        {
          "internalType": "address",
          "name": "owner",
          "type": "address"
        },
        {
          "internalType": "address",
          "name": "operator",
          "type": "address"
        }
      ],
      "name": "isApprovedForAll",
      "outputs": [
        {
          "internalType": "bool",
          "name": "",
          "type": "bool"
        }
      ],
      "stateMutability": "view",
      "type": "function"
    },
    {
      "inputs": [
        {
          "internalType": "uint256[8]",
          "name": "proof",
          "type": "uint256[8]"
        },
        {
          "internalType": "uint256[3]",
          "name": "signals",
          "type": "uint256[3]"
        }
      ],
      "name": "mint",
      "outputs": [],
      "stateMutability": "nonpayable",
      "type": "function"
    },
    {
      "inputs": [],
      "name": "name",
      "outputs": [
        {
          "internalType": "string",
          "name": "",
          "type": "string"
        }
      ],
      "stateMutability": "view",
      "type": "function"
    },
    {
      "inputs": [
        {
          "internalType": "uint256",
          "name": "tokenId",
          "type": "uint256"
        }
      ],
      "name": "ownerOf",
      "outputs": [
        {
          "internalType": "address",
          "name": "",
          "type": "address"
        }
      ],
      "stateMutability": "view",
      "type": "function"
    },
    {
      "inputs": [],
      "name": "pubKeyHashIndexInSignals",
      "outputs": [
        {
          "internalType": "uint32",
          "name": "",
          "type": "uint32"
        }
      ],
      "stateMutability": "view",
      "type": "function"
    },
    {
      "inputs": [
        {
          "internalType": "address",
          "name": "from",
          "type": "address"
        },
        {
          "internalType": "address",
          "name": "to",
          "type": "address"
        },
        {
          "internalType": "uint256",
          "name": "tokenId",
          "type": "uint256"
        }
      ],
      "name": "safeTransferFrom",
      "outputs": [],
      "stateMutability": "nonpayable",
      "type": "function"
    },
    {
      "inputs": [
        {
          "internalType": "address",
          "name": "from",
          "type": "address"
        },
        {
          "internalType": "address",
          "name": "to",
          "type": "address"
        },
        {
          "internalType": "uint256",
          "name": "tokenId",
          "type": "uint256"
        },
        {
          "internalType": "bytes",
          "name": "data",
          "type": "bytes"
        }
      ],
      "name": "safeTransferFrom",
      "outputs": [],
      "stateMutability": "nonpayable",
      "type": "function"
    },
    {
      "inputs": [
        {
          "internalType": "address",
          "name": "operator",
          "type": "address"
        },
        {
          "internalType": "bool",
          "name": "approved",
          "type": "bool"
        }
      ],
      "name": "setApprovalForAll",
      "outputs": [],
      "stateMutability": "nonpayable",
      "type": "function"
    },
    {
      "inputs": [
        {
          "internalType": "bytes4",
          "name": "interfaceId",
          "type": "bytes4"
        }
      ],
      "name": "supportsInterface",
      "outputs": [
        {
          "internalType": "bool",
          "name": "",
          "type": "bool"
        }
      ],
      "stateMutability": "view",
      "type": "function"
    },
    {
      "inputs": [],
      "name": "symbol",
      "outputs": [
        {
          "internalType": "string",
          "name": "",
          "type": "string"
        }
      ],
      "stateMutability": "view",
      "type": "function"
    },
    {
      "inputs": [
        {
          "internalType": "uint256",
          "name": "index",
          "type": "uint256"
        }
      ],
      "name": "tokenByIndex",
      "outputs": [
        {
          "internalType": "uint256",
          "name": "",
          "type": "uint256"
        }
      ],
      "stateMutability": "view",
      "type": "function"
    },
    {
      "inputs": [
        {
          "internalType": "uint256",
          "name": "tokenId",
          "type": "uint256"
        }
      ],
      "name": "tokenDesc",
      "outputs": [
        {
          "internalType": "string",
          "name": "",
          "type": "string"
        }
      ],
      "stateMutability": "view",
      "type": "function"
    },
    {
      "inputs": [
        {
          "internalType": "uint256",
          "name": "",
          "type": "uint256"
        }
      ],
      "name": "tokenIDToName",
      "outputs": [
        {
          "internalType": "string",
          "name": "",
          "type": "string"
        }
      ],
      "stateMutability": "view",
      "type": "function"
    },
    {
      "inputs": [
        {
          "internalType": "address",
          "name": "owner",
          "type": "address"
        },
        {
          "internalType": "uint256",
          "name": "index",
          "type": "uint256"
        }
      ],
      "name": "tokenOfOwnerByIndex",
      "outputs": [
        {
          "internalType": "uint256",
          "name": "",
          "type": "uint256"
        }
      ],
      "stateMutability": "view",
      "type": "function"
    },
    {
      "inputs": [
        {
          "internalType": "uint256",
          "name": "tokenId",
          "type": "uint256"
        }
      ],
      "name": "tokenURI",
      "outputs": [
        {
          "internalType": "string",
          "name": "",
          "type": "string"
        }
      ],
      "stateMutability": "view",
      "type": "function"
    },
    {
      "inputs": [],
      "name": "totalSupply",
      "outputs": [
        {
          "internalType": "uint256",
          "name": "",
          "type": "uint256"
        }
      ],
      "stateMutability": "view",
      "type": "function"
    },
    {
      "inputs": [
        {
          "internalType": "address",
          "name": "from",
          "type": "address"
        },
        {
          "internalType": "address",
          "name": "to",
          "type": "address"
        },
        {
          "internalType": "uint256",
          "name": "tokenId",
          "type": "uint256"
        }
      ],
      "name": "transferFrom",
      "outputs": [],
      "stateMutability": "nonpayable",
      "type": "function"
    },
    {
      "inputs": [],
      "name": "usernameIndexInSignals",
      "outputs": [
        {
          "internalType": "uint32",
          "name": "",
          "type": "uint32"
        }
      ],
      "stateMutability": "view",
      "type": "function"
    },
    {
      "inputs": [],
      "name": "usernameLengthInSignals",
      "outputs": [
        {
          "internalType": "uint32",
          "name": "",
          "type": "uint32"
        }
      ],
      "stateMutability": "view",
      "type": "function"
    },
    {
      "inputs": [],
      "name": "verifier",
      "outputs": [
        {
          "internalType": "contract Verifier",
          "name": "",
          "type": "address"
        }
      ],
      "stateMutability": "view",
      "type": "function"
    }
  ],
  "bytecode": {
    "object": "0x60a0346200036157601f6001600160401b03601f196200513a38819003848101831686019190848311878410176200034b578087926040948552833981010312620003615783516001600160a01b03939092908484168403620003615760208096015194851680950362000361576200007762000366565b926200008262000366565b908451908482116200034b576000918254966001978881811c9116801562000340575b8c8210146200032c57908b8288859411620002d6575b50508b908783116001146200027157859262000265575b5050600019600383901b1c191690871b1782555b8251948511620002515785548681811c9116801562000246575b8a8210146200023257848111620001ea575b50889385116001146200018457508394959697509262000178575b5050600019600383901b1c191690821b1790555b608052600b80546001600160a01b031916919091179055604051614d999081620003a1823960805181818161311a01526133600152f35b0151905038806200012d565b8493929193169785845280842093905b898210620001d2575050838596979810620001b8575b505050811b01905562000141565b015160001960f88460031b161c19169055388080620001aa565b80878596829496860151815501950193019062000194565b8683528983208580880160051c8201928c891062000228575b0160051c019087905b8281106200021c57505062000112565b8481550187906200020c565b9250819262000203565b634e487b7160e01b83526022600452602483fd5b90607f169062000100565b634e487b7160e01b82526041600452602482fd5b015190503880620000d2565b908c91858b95168780528388209388905b828210620002bc5750508411620002a2575b505050811b018255620000e6565b015160001960f88460031b161c1916905538808062000294565b8484015186558d9790950194938401939081019062000282565b90919250858052878287209181860160051c830193861062000322575b918b91869594930160051c01915b8281106200031357508d9150620000bb565b8781558594508b910162000301565b92508192620002f3565b634e487b7160e01b85526022600452602485fd5b90607f1690620000a5565b634e487b7160e01b600052604160045260246000fd5b600080fd5b60408051919082016001600160401b038111838210176200034b57604052600d82526c15995c9a599a5959115b585a5b609a1b602083015256fe608080604052600436101561001357600080fd5b60003560e01c90816301ffc9a714613cf05750806306fdde0314613c46578063081812fc14613c28578063095ea7b314613aae57806314c5225114613a9257806316eb903b1461319057806318160ddd1461317257806323b872dd146131495780632b7ac3f3146131045780632f745c5914613052578063312033bf146130365780633827fc6f14612bed5780633e09849014612a0357806342842e0e146129db5780634f6ccce71461294a5780634f79d38a1461291e57806361e80718146101985780636352211e146128ee57806370a08231146128c357806395d89b41146127e5578063a22cb46514612713578063b88d4fde14612689578063bec47aea1461266d578063c87b56dd1461019d578063c9929db9146101985763e985e9c51461013d57600080fd5b3461019357604036600319011261019357610156613dbd565b61015e613dd3565b9060018060a01b03809116600052600560205260406000209116600052602052602060ff604060002054166040519015158152f35b600080fd5b613f8a565b3461019357602036600319011261019357600435600052600c6020526101c66040600020613ee6565b6101d1600435614786565b906101e46001600160a01b0383166145dc565b916101f76001600160a01b0382166145dc565b6102096001600160a01b038316614666565b9361021c6001600160a01b038416614666565b60ff8460101c1660ff6102528161024c6102428261023c60043588614026565b06614334565b9460043590614026565b06613ff8565b046064810181116125c4576000906064810190819072184f03e93ff9f4daa797ed6e38ed64bf6a1f0160401b821015612642575b50806d04ee2d6d415b85acef8100000000600a921015612627575b662386f26fc10000811015612613575b6305f5e100811015612602575b6127108110156125f3575b60648110156125e5575b10156125da575b600a60216102ea60018501614053565b938401015b60001901916f181899199a1a9b1b9c1cb0b131b232b360811b8282061a835304801561031e57600a90916102ef565b505061033660ff61023c600435828a60201c16614026565b61035260ff61034c600435828b60201c16614026565b0661448b565b9160ff6103708161036a600435828d60301c16614026565b0661400f565b04936010850185116125c4576000946010810190819072184f03e93ff9f4daa797ed6e38ed64bf6a1f0160401b821015612599575b50806d04ee2d6d415b85acef8100000000600a92101561257e575b662386f26fc1000081101561256a575b6305f5e100811015612559575b61271081101561254a575b606481101561253c575b1015612531575b600a602161040960018901614053565b978801015b60001901916f181899199a1a9b1b9c1cb0b131b232b360811b8282061a835304801561043d57600a909161040e565b505061045560ff61034c600435828d60301c16614026565b956040519b8c6001600160401b0361018082818101109201111761251b576105a89960608e8e6101808201604052815260043560208201528b6040820152015260808d015260a08c015260c08b015260e08a01526101008901526101208801526101408701526101608601526105a360aa60405180937f3c7376672077696474683d2732393027206865696768743d273530302720766960208301527f6577426f783d2730203020323930203530302720786d6c6e733d27687474703a60408301527f2f2f7777772e77332e6f72672f323030302f737667273e3c726563742077696460608301527f74683d27323930707827206865696768743d273530307078272066696c6c3d276080830152602360f81b60a083015261058181518092602060a186019101613d75565b81016813979f1e17b9bb339f60b91b60a182015203608a810184520182613e56565b614160565b61144a6109ea61065c60206105a3602260c08a015160e08b015160608c0151906040519586936105e96105dc8387016142b3565b9182815194859201613d75565b0165272063793d2760d01b815261060a825180936020600685019101613d75565b01722720723d273132307078272066696c6c3d272360681b600682015261063b825180936020601985019101613d75565b016813979f1e17b9bb339f60b91b6019820152036002810184520182613e56565b9261068d60206105a360226101008b01516101208c015160808d0151906040519586936105e96105dc8387016142b3565b61071060206105a360226101408c01518c60a0610160820151910151906040519586936106be6105dc8387016142b3565b0165272063793d2760d01b81526106df825180936020600685019101613d75565b01722720723d273130307078272066696c6c3d272360681b600682015261063b825180936020601985019101613d75565b907f22202f3e3c6665426c656e64206d6f64653d226f7665726c61792220696e3d2260408a0151916040519788957f3c7376672077696474683d2232393022206865696768743d223530302220766960208801527f6577426f783d2230203020323930203530302220786d6c6e733d22687474703a6040880152751797bbbbbb973b999737b933979918181817b9bb339160511b60608801527f20786d6c6e733a786c696e6b3d27687474703a2f2f7777772e77332e6f72672f60768801526b189c9c9c97bc3634b735939f60a11b6096880152651e3232b3399f60d11b60a28801527f3c66696c7465722069643d226631223e3c6665496d61676520726573756c743d60a88801527f2270302220786c696e6b3a687265663d22646174613a696d6167652f7376672b60c88801526a1e1b5b0ed8985cd94d8d0b60aa1b60e888015261086781518092602060f38b019101613d75565b7f222f3e3c6665496d61676520726573756c743d2270312220786c696e6b3a687260f382890101527f65663d22646174613a696d6167652f7376672b786d6c3b6261736536342c000061011382890101526108cf825180936020610131858c01019101613d75565b7f222f3e3c6665496d61676520726573756c743d2270322220786c696e6b3a687287820183016101318101919091527f65663d22646174613a696d6167652f7376672b786d6c3b6261736536342c000061015182015283519361093d91859161016f90910190602001613d75565b8601010192631110179f60e11b61016f8501527f3c6665496d61676520726573756c743d2270332220786c696e6b3a687265663d6101738501527f22646174613a696d6167652f7376672b786d6c3b6261736536342c00000000006101938501526101ae936109b58251809360208885019101613d75565b01928301527f70302220696e323d22703122202f3e3c6665426c656e64206d6f64653d2265786101ce8301527f636c7573696f6e2220696e323d22703222202f3e3c6665426c656e64206d6f646101ee8301527f653d226f7665726c61792220696e323d2270332220726573756c743d22626c6561020e8301527f6e644f757422202f3e3c6665476175737369616e426c7572200000000000000061022e8301527f696e3d22626c656e644f75742220737464446576696174696f6e3d22343222206102478301527f2f3e3c2f66696c7465723e203c636c6970506174682069643d22636f726e65726102678301527f73223e3c726563742077696474683d2232393022206865696768743d223530306102878301527f222072783d223432222072793d22343222202f3e3c2f636c6970506174683e006102a78301527f3c706174682069643d22746578742d706174682d612220643d224d34302031326102c68301527f20483235302041323820323820302030203120323738203430205634363020416102e68301527f32382032382030203020312032353020343838204834302041323820323820306103068301527f2030203120313220343630205634302041323820323820302030203120343020610326830152671899103d1110179f60c11b6103468301527f3c706174682069643d226d696e696d61702220643d224d32333420343434433261034e8301527f3334203435372e393439203234322e323120343633203235332034363322202f61036e830152601f60f91b61038e83018190527f3c66696c7465722069643d22746f702d726567696f6e2d626c7572223e3c666561038f8401527f476175737369616e426c757220696e3d22536f757263654772617068696322206103af8401527f737464446576696174696f6e3d22323422202f3e3c2f66696c7465723e0000006103cf8401527f3c6c696e6561724772616469656e742069643d22677261642d7570222078313d6103ec8401527f2231222078323d2230222079313d2231222079323d2230223e3c73746f70206f61040c8401527f66667365743d22302e30222073746f702d636f6c6f723d22776869746522207361042c840152713a37b816b7b830b1b4ba3c9e91189110179f60711b61044c8401527f3c73746f70206f66667365743d222e39222073746f702d636f6c6f723d22776861045e8401527f697465222073746f702d6f7061636974793d223022202f3e3c2f6c696e65617261047e8401526823b930b234b2b73a1f60b91b61049e8401527f3c6c696e6561724772616469656e742069643d22677261642d646f776e2220786104a78401527f313d2230222078323d2231222079313d2230222079323d2231223e3c73746f706104c78401527f206f66667365743d22302e30222073746f702d636f6c6f723d227768697465226104e78401527f2073746f702d6f7061636974793d223122202f3e3c73746f70206f66667365746105078401527f3d22302e39222073746f702d636f6c6f723d227768697465222073746f702d6f6105278401527f7061636974793d223022202f3e3c2f6c696e6561724772616469656e743e00006105478401527f3c6d61736b2069643d22666164652d757022206d61736b436f6e74656e74556e6105658401527f6974733d226f626a656374426f756e64696e67426f78223e3c726563742077696105858401527f6474683d223122206865696768743d2231222066696c6c3d2275726c282367726105a58401527030b216bab8149110179f1e17b6b0b9b59f60791b6105c58401527f3c6d61736b2069643d22666164652d646f776e22206d61736b436f6e74656e746105d68401527f556e6974733d226f626a656374426f756e64696e67426f78223e3c72656374206105f68401527f77696474683d223122206865696768743d2231222066696c6c3d2275726c28236106168401527433b930b216b237bbb7149110179f1e17b6b0b9b59f60591b6106368401527f3c6d61736b2069643d226e6f6e6522206d61736b436f6e74656e74556e69747361064b8401527f3d226f626a656374426f756e64696e67426f78223e3c7265637420776964746861066b8401527f3d223122206865696768743d2231222066696c6c3d22776869746522202f3e3c61068b8401526517b6b0b9b59f60d11b6106ab8401527f3c6c696e6561724772616469656e742069643d22677261642d73796d626f6c226106b18401527f3e3c73746f70206f66667365743d22302e37222073746f702d636f6c6f723d226106d18401527f7768697465222073746f702d6f7061636974793d223122202f3e3c73746f70206106f18401527f6f66667365743d222e3935222073746f702d636f6c6f723d22776869746522206107118401527f73746f702d6f7061636974793d223022202f3e3c2f6c696e65617247726164696107318401526332b73a1f60e11b6107518401527f3c6d61736b2069643d22666164652d73796d626f6c22206d61736b436f6e74656107558401527f6e74556e6974733d227573657253706163654f6e557365223e3c7265637420776107758401527f696474683d22323930707822206865696768743d223330307078222066696c6c6107958401527f3d2275726c2823677261642d73796d626f6c2922202f3e3c2f6d61736b3e3c2f6107b5840152643232b3399f60d91b6107d58401527f3c6720636c69702d706174683d2275726c2823636f726e65727329223e0000006107da8401526b1e3932b1ba103334b6361e9160a11b6107f784015281516108039391927f2220783d223070782220793d22307078222077696474683d223239307078222092906111eb90839087840190602001613d75565b0192830152703432b4b3b43a1e911a9818383c1110179f60791b6108238301527f3c72656374207374796c653d2266696c7465723a2075726c28236631292220786108348301527f3d223070782220793d22307078222077696474683d22323930707822206865696108548301526d33b43a1e911a9818383c1110179f60911b6108748301527f203c67207374796c653d2266696c7465723a75726c2823746f702d726567696f6108828301527f6e2d626c7572293b207472616e73666f726d3a7363616c6528312e35293b20746108a28301527f72616e73666f726d2d6f726967696e3a63656e74657220746f703b223e0000006108c28301527f3c726563742066696c6c3d226e6f6e652220783d223070782220793d223070786108df8301527f222077696474683d22323930707822206865696768743d22353030707822202f6108ff83015261091f8201527f3c656c6c697073652063783d22353025222063793d22307078222072783d22316109208201527f38307078222072793d223132307078222066696c6c3d222330343143333222206109408201527437b830b1b4ba3c9e9118171c1a9110179f1e17b39f60591b6109608201527f3c7265637420783d22302220793d2230222077696474683d22323930222068656109758201527f696768743d22353030222072783d223432222072793d223432222066696c6c3d6109958201527f227267626128302c302c302c302922207374726f6b653d2272676261283235356109b58201527416191a9a96191a9a96181719149110179f1e17b39f60591b6109d5820152036109ca810184520182613e56565b8351936116f761024d60405180977f3c7465787420746578742d72656e646572696e673d226f7074696d697a65537060208301526432b2b2111f60d91b60408301527f3c74657874506174682073746172744f66667365743d222d313030252220666960458301527f6c6c3d2277686974652220666f6e742d66616d696c793d2227436f757269657260658301527f204e6577272c206d6f6e6f73706163652220666f6e742d73697a653d2231307060858301527f782220786c696e6b3a687265663d2223746578742d706174682d61223e00000060a5830152805160208201906115398160c2860184613d75565b8301907f203c616e696d6174652061646469746976653d2273756d2220617474726962758060c28401527f74654e616d653d2273746172744f6666736574222066726f6d3d223025222074918260e28501527f6f3d22313030252220626567696e3d22307322206475723d223330732220726593846101028201527f70656174436f756e743d22696e646566696e69746522202f3e000000000000006101228201527f3c2f74657874506174683e203c74657874506174682073746172744f6666736561013b8201527f743d223025222066696c6c3d2277686974652220666f6e742d66616d696c793d61015b8201527f2227436f7572696572204e6577272c206d6f6e6f73706163652220666f6e742d61017b8201527f73697a653d22313070782220786c696e6b3a687265663d2223746578742d706161019b820152653a3416b0911f60d11b6101bb82015261169a6101c19651809388840190613d75565b01938401526101e18301526102018201527f70656174436f756e743d22696e646566696e69746522202f3e203c2f746578746102218201526b2830ba341f1e17ba32bc3a1f60a11b6102418201520361022d810188520186613e56565b51611ac46102ec60405180937f3c67206d61736b3d2275726c2823666164652d73796d626f6c29223e3c72656360208301527f742066696c6c3d226e6f6e652220783d223070782220793d223070782220776960408301527f6474683d22323930707822206865696768743d22343030707822202f3e203c7460608301527f65787420793d22373070782220783d2233327078222066696c6c3d227768697460808301527f652220666f6e742d66616d696c793d2227436f7572696572204e6577272c206d60a08301527f6f6e6f73706163652220666f6e742d7765696768743d223230302220666f6e7460c08301526c16b9b4bd329e91199b383c111f60991b60e08301526a135e481d995c9a599a595960aa1b60ed8301527f3c2f746578743e3c7465787420793d2231313570782220783d2233327078222060f88301527f66696c6c3d2277686974652220666f6e742d66616d696c793d2227436f7572696101188301527f6572204e6577272c206d6f6e6f73706163652220666f6e742d7765696768743d610138830152761119181811103337b73a16b9b4bd329e91199b383c111f60491b6101588301526e151dda5d1d195c881858d8dbdd5b9d608a1b61016f8301527f3c2f746578743e3c7465787420793d2231363070782220783d2233327078222061017e8301527f66696c6c3d2277686974652220666f6e742d66616d696c793d2227436f75726961019e8301527f6572204e6577272c206d6f6e6f73706163652220666f6e742d7765696768743d6101be830152761119181811103337b73a16b9b4bd329e91199b383c111f60491b6101de83015261697360f01b6101f58301527f3c2f746578743e3c7465787420793d2232303570782220783d223332707822206101f78301527f66696c6c3d2277686974652220666f6e742d66616d696c793d2227436f7572696102178301527f6572204e6577272c206d6f6e6f73706163652220666f6e742d7765696768743d610237830152761119181811103337b73a16b9b4bd329e91199b383c111f60491b6102578301526a1e17ba32bc3a1f1e17b39f60a91b61026e91611a1d8151809260208688019101613d75565b8301918201527f3c7265637420783d2231362220793d223136222077696474683d2232353822206102798201527f6865696768743d22343638222072783d223236222072793d223236222066696c6102998201527f6c3d227267626128302c302c302c302922207374726f6b653d227267626128326102b9820152721a9a96191a9a96191a9a96181719149110179f60691b6102d9820152036102cc810184520182613e56565b604051947f3c67207374796c653d227472616e73666f726d3a7472616e736c61746528383460208701527f70782c20333030707829207363616c65283529223e3c673e3c7061746820643d60408701527f224d342e34303433342031332e3630393943332e35313531372031332e31343460608701527f3820332031322e35393234203320313243332031302e3334333120372e30323960808701527f3434203920313220394331362e3937303620392032312031302e33343331203260a08701527f312031324332312031322e373134342032302e323530382031332e333730352060c08701527f31392031332e3838353822207374726f6b653d2277686974652220207374726f60e08701527f6b652d6c696e656361703d22726f756e6422207374726f6b652d6c696e656a6f6101008701527f696e3d22726f756e64222066696c6c3d226e6f6e65222f3e00000000000000006101208701527f3c7061746820643d224d323420342e353537632d2e3838332e3339322d312e386101388701527f33322e3635362d322e3832382e37373520312e3031372d2e36303920312e37396101588701527f382d312e35373420322e3136352d322e3732342d2e3935312e3536342d322e306101788701527f30352e3937342d332e31323720312e3139352d2e3839372d2e3935372d322e316101988701527f37382d312e3535352d332e3539342d312e3535352d332e31373920302d352e356101b88701527f313520322e3936362d342e37393720362e3034352d342e3039312d2e3230352d6101d88701527f372e3731392d322e3136352d31302e3134382d352e3134342d312e323920322e6101f88701527f3231332d2e36363920352e31303820312e35323320362e3537342d2e3830362d6102188701527f2e3032362d312e3536362d2e3234372d322e3232392d2e3631362d2e303534206102388701527f322e32383120312e35383120342e34313520332e39343920342e38392d2e36396102588701527f332e3138382d312e3435322e3233322d322e3232342e3038342e36323620312e6102788701527f39353620322e34343420332e33373920342e3620332e3431392d322e303720316102988701527f2e3632332d342e36373820322e3334382d372e323920322e303420322e3137396102b88701527f20312e33393720342e37363820322e32313220372e35343820322e32313220396102d88701527f2e31343220302031342e3330372d372e3732312031332e3939352d31342e36346102f88701527f362e3936322d2e36393520312e3739372d312e35363220322e3435372d322e35610318870152651a1cbd11179f60d11b6103388701527f3c616e696d6174655472616e73666f726d206174747269627574654e616d653d61033e8701527f227472616e73666f726d2220747970653d22726f74617465222066726f6d3d2261035e8701527f302031322031322220746f3d2233363020313220313222206475723d2231307361037e8701527f2220726570656174436f756e743d22696e646566696e697465222f3e3c2f673e61039e870152631e17b39f60e11b6103be8701526103a28652856103e08101106001600160401b036103e08801111761251b57611ff99286926103e09283850160405261040092611f90815180926020878a019101613d75565b8501611fa58251809360208785019101613d75565b01611fb98251809360208685019101613d75565b01611fcc84518093830160208701613d75565b0101651e17b9bb339f60d11b6020820152036103d91981016103e08601526103b919016103e08501613e56565b60405191906001600160a01b0316608083016001600160401b0381118482101761251b5760405260568352602083019060603683378351156125055760308253835160011015612505576078602185015360555b600181116124c3575061247f576102b86124149361211c936105a3936120796103e061247b9901614160565b916040519687946f03d9130ba3a3934b13aba32b9911d2d960851b6020870152751ec89d1c985a5d17dd1e5c19488e880893985b59488b60521b603087015269113b30b63ab2911d101160b11b928360468801526120e181518092602060508b019101613d75565b8601927f227d2c207b2274726169745f74797065223a20224f776e6572222c00000000006050850152606b8401525180936075840190613d75565b01907f227d5d2c20226465736372697074696f6e223a20225a4b20566572696669656460758301527f456d61696c7320617265205a4b2076657269666965642070726f6f6673206f6660958301527f20656d61696c20726563696576696e67206f6e20457468657265756d2e20546860b58301527f6579206f6e6c792072657665616c207061727473206f662074686520656d616960d58301527f6c206865616465727320616e6420626f647920626f64792c20616e642061726560f58301527f20766572696669656420766961206d61696c736572766572207369676e6174756101158301527f726520766572696669636174696f6e3a20746865726520617265206e6f2073706101358301527f656369616c207061727479206174746573746572732e2057652061726520776f6101558301527f726b696e6720746f2073686970206d6f72652076657269666961626c652070726101758301527f6f6f6673206f66207369676e6564206461746120696e636c7564696e67207a6b6101958301527f20626c696e642c20616e642061766f6964207465727269626c652074726167656101b58301527f6479206f662074686520636f6d6d6f6e73207363656e6172696f7320776865726101d58301527f6520696e73746974756974696f6e2072657075746174696f6e20697320736c6f6101f58301527f776c79207370656e7420627920697473206d656d626572732e205665726966696102158301527f6564456d61696c2075736573205a4b20534e41524b7320746f20696e73696e756102358301527f617465207468697320736f6369616c2064796e616d69632c20776974682061206102558301527f66697273742064656d6f206174207a6b656d61696c2e78797a2e222c2022696d6102758301527f616765223a2022646174613a696d6167652f7376672b786d6c3b626173653634610295830152600b60fa1b6102b58301526102b6916123f98251809360208685019101613d75565b019061227d60f01b9082015203610298810184520182613e56565b612467603d60405180937f646174613a6170706c69636174696f6e2f6a736f6e3b6261736536342c00000060208301526124578151809260208686019101613d75565b810103601d810184520182613e56565b604051918291602083526020830190613d98565b0390f35b606460405162461bcd60e51b815260206004820152602060248201527f537472696e67733a20686578206c656e67746820696e73756666696369656e746044820152fd5b90600f811690601082101561250557612500916f181899199a1a9b1b9c1cb0b131b232b360811b901a6124f68488614085565b5360041c916142a6565b61204d565b634e487b7160e01b600052603260045260246000fd5b634e487b7160e01b600052604160045260246000fd5b6001909501946103f9565b6064600291049701966103f2565b612710600491049701966103e8565b6305f5e100600891049701966103dd565b662386f26fc10000601091049701966103d0565b6d04ee2d6d415b85acef8100000000602091049701966103c0565b6040975072184f03e93ff9f4daa797ed6e38ed64bf6a1f0160401b601091909101049050600a6103a5565b634e487b7160e01b600052601160045260246000fd5b6001909101906102da565b6064600291049301926102d3565b612710600491049301926102c9565b6305f5e100600891049301926102be565b662386f26fc10000601091049301926102b1565b6d04ee2d6d415b85acef8100000000602091049301926102a1565b6040935072184f03e93ff9f4daa797ed6e38ed64bf6a1f0160401b606491909101049050600a610286565b34610193576000366003190112610193576020604051601f8152f35b34610193576080366003190112610193576126a2613dbd565b6126aa613dd3565b606435916001600160401b0383116101935736602384011215610193578260040135916126d683613fa6565b926126e46040519485613e56565b8084523660248287010111610193576020816000926024612711980183880137850101526044359161484c565b005b346101935760403660031901126101935761272c613dbd565b60243590811515809203610193576001600160a01b0316903382146127a057336000526005602052604060002082600052602052604060002060ff1981541660ff83161790556040519081527f17307eab39ab6107e8899845ad3d59bd9653f200f220920489ca2b5937696c3160203392a3005b60405162461bcd60e51b815260206004820152601960248201527f4552433732313a20617070726f766520746f2063616c6c6572000000000000006044820152606490fd5b3461019357600036600319011261019357604051600060018281549261280a84613eac565b928383526020948582821691826000146128a3575050600114612849575b5061283592500383613e56565b61247b604051928284938452830190613d98565b6000818152859250907fb10e2d527612073b26eecdfd717e6a320cf44b4afac2b0732d9fcbe2b7fa0cf65b85831061288b575050612835935082010185612828565b80548389018501528794508693909201918101612874565b60ff19168582015261283595151560051b85010192508791506128289050565b346101935760203660031901126101935760206128e66128e1613dbd565b6146c3565b604051908152f35b3461019357602036600319011261019357602061290c600435614786565b6040516001600160a01b039091168152f35b3461019357602036600319011261019357600435600052600c60205261247b6124676040600020613ee6565b346101935760203660031901126101935760043560085481101561298157612973602091613fc1565b90546040519160031b1c8152f35b60405162461bcd60e51b815260206004820152602c60248201527f455243373231456e756d657261626c653a20676c6f62616c20696e646578206f60448201526b7574206f6620626f756e647360a01b6064820152608490fd5b34610193576127116129ec36613e77565b90604051926129fa84613e3b565b6000845261484c565b3461019357602080600319360112610193576004359081600052600c8152612a37612a316040600020613ee6565b92614786565b91604051926001600160601b03199060601b168284015260148352612a5b83613de9565b60405192612a6884613de9565b601084526f181899199a1a9b1b9c1cb0b131b232b360811b838501528051600181811b6002928082048414901517156125c45782018083116125c457612aad90614053565b928351156125055785840196603088538451831015612505578290607860218701536000915b612b47575b612b3888612835603b8a8d8b6040519687936f5477697474657220757365726e616d6560801b88860152612b15815180928a603089019101613d75565b8401916a6973206f776e656420627960a81b603084015251809386840190613d75565b0103601b810185520183613e56565b8251821015612be8576001600160f81b03199182612b72612b688387614085565b5160fc1c84614085565b51169281861b938285048814831517156125c457848801908189116125c457612b9f9060001a918a614085565b53612bba600f612baf8488614085565b5160f81c1684614085565b51169060039384018094116125c4578593612bdc612be29360001a918a614085565b53614096565b91612ad3565b612ad8565b3461019357602080600319360112610193576004356001600160401b03918282116101935736602383011215610193578160040135916024938311613021578260051b60405193612c4084830186613e56565b84528483850191830101913683116101935785849101915b8383106130115750505050600090825191601f9283810290808204851490151715612ffc57612c8690614053565b6000805b865161ffff821690811015612ddc57612ca390886140fa565b5160405190612cb182613e1f565b8782526103e0368884013760005b888110612d9657509060005b888110612cff5750505061ffff809116908114612cea57600101612c8a565b87634e487b7160e01b60005260116004526000fd5b909193612d0c82846140fa565b5160ff811615612d6b57612d35919060f81b6001600160f81b03191660001a612bdc8289614085565b936001871615612d56575b612d4e905b60081c91614096565b919091612ccb565b95612d63612d4e9161410e565b969050612d40565b5093600180881614612d81575b612d4e90612d45565b95612d8e612d4e9161410e565b969050612d78565b8060031b9080820460081481151715612dc75760ff83612dc2931c16612dbc82866140fa565b52614096565b612cbf565b8b634e487b7160e01b60005260116004526000fd5b838660018b8660ff8a168311612f7257601210612f1157508251906000815b612ed0575b5050612e0b81614053565b9060005b818110612ea557505060405190612e2582613de9565b604051612e3181613de9565b600c81526b76657269667940782e636f6d60a01b848201528252612e7e60405192612e5b84613de9565b600a845269696e666f40782e636f6d60b01b8585015284810193845251826140a5565b918215612e92575b50506040519015158152f35b612e9e925051906140a5565b8280612e86565b612ecb906001600160f81b0319612ebc8288614085565b511660001a612bdc8286614085565b612e0f565b8451811015612f0c576001600160f81b0319612eec8287614085565b511615612f0257612efc90614096565b81612dfb565b9150508380612e00565b612e00565b8260356084926040519262461bcd60e51b845260048401528201527f5061636b6564206279746573206d6f7265207468616e20616c6c6f776564206d6044820152746178206e756d626572206f66207369676e616c732160581b6064820152fd5b60405162461bcd60e51b8152600481018590526057818401527f4e6f207061636b656420627974657320666f756e642120496e76616c6964206660448201527f696e616c207374617465206f66207061636b656420627974657320696e20656d60648201527661696c3b2076616c7565206973206c696b656c7920302160481b608482015260a490fd5b85634e487b7160e01b60005260116004526000fd5b8235815291810191849101612c58565b83634e487b7160e01b60005260416004526000fd5b3461019357600036600319011261019357602060405160028152f35b346101935760403660031901126101935761306b613dbd565b60243590613078816146c3565b8210156130ab5760018060a01b031660005260066020526040600020906000526020526020604060002054604051908152f35b60405162461bcd60e51b815260206004820152602b60248201527f455243373231456e756d657261626c653a206f776e657220696e646578206f7560448201526a74206f6620626f756e647360a81b6064820152608490fd5b34610193576000366003190112610193576040517f00000000000000000000000000000000000000000000000000000000000000006001600160a01b03168152602090f35b346101935761271161315a36613e77565b9161316d61316884336148e7565b6147ea565b6149fb565b34610193576000366003190112610193576020600854604051908152f35b34610193576101603660031901126101935736602312156101935760405161010081018181106001600160401b0382111761251b57604052803661010411610193576004905b6101048210613a82578236610123121561019357604051906131f782613e04565b6101648236821161019357610104905b828210613a725750508251602061326360018060a01b03600b541660405161322e81613de9565b6005815264782e636f6d60d81b848201526040518095819482936373d3cbbd60e11b8452604060048501526044840190613d98565b90602483015203915afa9081156139d157600091613a53575b5015613a15576040519161328f83613de9565b80518352602081015160208401526040516132a981613de9565b6040516132b581613de9565b604083015181526060830151602082015281526040516132d481613de9565b6080830151815260a08301516020820152602082015260e0604051926132f984613de9565b60c08101518452015160208301526040516308a3cff560e11b815293613323906004860190614138565b6000604485015b600282106139f7575050506133439060c4840190614138565b8183600061010483015b600382106139dd575060209391508290507f00000000000000000000000000000000000000000000000000000000000000006001600160a01b03165afa9081156139d1576000916139a2575b501561396d57604051906133ac82613de9565b600182526020368184013760015b6002811061393d5782600a546001810181116125c45760008251601f810290808204601f14901517156125c4576133f090614053565b9060009260005b855161ffff82169081101561351c5761341090876140fa565b516040519061341e82613e1f565b601f82526103e036602084013760005b601f81106134f157509060005b601f811061345b5750505061ffff8091169081146125c4576001016133f7565b90919661346882846140fa565b5160ff8116156134c657613491919060f81b6001600160f81b03191660001a612bdc828a614085565b9660018616156134b1575b6134a99060081c91614096565b91909161343b565b946134be6134a99161410e565b95905061349c565b50966001808716146134dc575b6134a990612d45565b946134e96134a99161410e565b9590506134d3565b8060031b90808204600814811517156125c45760ff83613517931c16612dbc82866140fa565b61342e565b848387600160ff8816106138b257601f1061384f5781519060005b8351811015613848576001600160f81b03196135538286614085565b5116156135685761356390614096565b613537565b9091505b61357581614053565b9260005b82811061381d5750505060018101600052600c602052604060002082516001600160401b03811161251b576135ae8254613eac565b601f81116137d5575b506020601f821160011461376f5781929394600092613764575b50508160011b916000199060031b1c19161790555b33156137205760018101600090815260026020526040902054613615906001600160a01b031615155b15614955565b6008549060018101600052600960205281604060002055600160401b82101561251b5761366661364c836001809501600855613fc1565b8484019082549060031b91821b91600019901b1916179055565b61366f336146c3565b336000908152600660209081526040808320848452825280832085870190819055835260078252808320939093556002905220546136b7906001600160a01b0316151561360f565b336000526003602052604060002082815401905581810160005260026020526040600020336001600160601b0360a01b825416179055013360007fddf252ad1be2c89b69c2b068fc378daa952ba7f163c4a11628f55a4df523b3ef8180a4600a80546001019055005b606460405162461bcd60e51b815260206004820152602060248201527f4552433732313a206d696e7420746f20746865207a65726f20616464726573736044820152fd5b0151905084806135d1565b601f198216908360005260206000209160005b8181106137bd575095836001959697106137a4575b505050811b0190556135e6565b015160001960f88460031b161c19169055848080613797565b9192602060018192868b015181550194019201613782565b826000526020600020601f830160051c81019160208410613813575b601f0160051c01905b81811061380757506135b7565b600081556001016137fa565b90915081906137f1565b613843906001600160f81b03196138348285614085565b511660001a612bdc8288614085565b613579565b509061356c565b60405162461bcd60e51b815260206004820152603560248201527f5061636b6564206279746573206d6f7265207468616e20616c6c6f776564206d6044820152746178206e756d626572206f66207369676e616c732160581b6064820152608490fd5b60405162461bcd60e51b815260206004820152605760248201527f4e6f207061636b656420627974657320666f756e642120496e76616c6964206660448201527f696e616c207374617465206f66207061636b656420627974657320696e20656d60648201527661696c3b2076616c7565206973206c696b656c7920302160481b608482015260a490fd5b6003811015612505578060051b820151906000198101918183116125c457612dbc61396893866140fa565b6133ba565b60405162461bcd60e51b815260206004820152600d60248201526c24b73b30b634b210283937b7b360991b6044820152606490fd5b6139c4915060203d6020116139ca575b6139bc8183613e56565b810190614120565b82613399565b503d6139b2565b6040513d6000823e3d90fd5b82935060208091600193945181520193019101849261334d565b6020604082613a096001948751614138565b0193019101909161332a565b60405162461bcd60e51b8152602060048201526016602482015275696e76616c696420646b696d207369676e617475726560501b6044820152606490fd5b613a6c915060203d6020116139ca576139bc8183613e56565b8461327c565b8135815260209182019101613207565b81358152602091820191016131d6565b3461019357600036600319011261019357602060405160008152f35b3461019357604036600319011261019357613ac7613dbd565b602435906001600160a01b038080613ade85614786565b16921691808314613bd957803314908115613bb4575b5015613b4957600083815260046020526040902080546001600160a01b03191683179055613b2183614786565b167f8c5be1e5ebec7d5bd14f71427d1e84f3dd0314c0f7b2291e5b200ac8c7c3b925600080a4005b60405162461bcd60e51b815260206004820152603d60248201527f4552433732313a20617070726f76652063616c6c6572206973206e6f7420746f60448201527f6b656e206f776e6572206f7220617070726f76656420666f7220616c6c0000006064820152608490fd5b9050600052600560205260406000203360005260205260ff6040600020541684613af4565b60405162461bcd60e51b815260206004820152602160248201527f4552433732313a20617070726f76616c20746f2063757272656e74206f776e656044820152603960f91b6064820152608490fd5b3461019357602036600319011261019357602061290c6004356147ac565b3461019357600036600319011261019357604051600080549082613c6983613eac565b918282526020936001908582821691826000146128a3575050600114613c96575061283592500383613e56565b6000808052859250907f290decd9548b62a8d60345a988386fc84ba6bc95484008f6362f93160ef3e5635b858310613cd8575050612835935082010185612828565b80548389018501528794508693909201918101613cc1565b34610193576020366003190112610193576004359063ffffffff60e01b82168092036101935760209163780e9d6360e01b8114908115613d32575b5015158152f35b6380ac58cd60e01b811491508115613d64575b8115613d53575b5083613d2b565b6301ffc9a760e01b14905083613d4c565b635b5e139f60e01b81149150613d45565b60005b838110613d885750506000910152565b8181015183820152602001613d78565b90602091613db181518092818552858086019101613d75565b601f01601f1916010190565b600435906001600160a01b038216820361019357565b602435906001600160a01b038216820361019357565b604081019081106001600160401b0382111761251b57604052565b606081019081106001600160401b0382111761251b57604052565b61040081019081106001600160401b0382111761251b57604052565b602081019081106001600160401b0382111761251b57604052565b90601f801991011681019081106001600160401b0382111761251b57604052565b6060906003190112610193576001600160a01b0390600435828116810361019357916024359081168103610193579060443590565b90600182811c92168015613edc575b6020831014613ec657565b634e487b7160e01b600052602260045260246000fd5b91607f1691613ebb565b90604051918260008254613ef981613eac565b908184526020946001918281169081600014613f685750600114613f29575b505050613f2792500383613e56565b565b600090815285812095935091905b818310613f50575050613f279350820101388080613f18565b85548884018501529485019487945091830191613f37565b92505050613f2794925060ff191682840152151560051b820101388080613f18565b3461019357600036600319011261019357602060405160018152f35b6001600160401b03811161251b57601f01601f191660200190565b6008548110156125055760086000527ff3f7a9fe364faab93b216da50a3214154f22a0a2b415b23a84c8169e8b636ee30190600090565b90610180918281029281840414901517156125c457565b90610102918281029281840414901517156125c457565b818102929181159184041417156125c457565b6040519061404682613de9565b6006825260203681840137565b9061405d82613fa6565b61406a6040519182613e56565b828152809261407b601f1991613fa6565b0190602036910137565b908151811015612505570160200190565b60001981146125c45760010190565b90604051916020926140d38482816140c68183019687815193849201613d75565b8101038084520182613e56565b519020916140f36040519182816140c68183019687815193849201613d75565b5190201490565b80518210156125055760209160051b010190565b60ff60019116019060ff82116125c457565b90816020910312610193575180151581036101935790565b6000915b6002831061414957505050565b60019082518152602080910192019201919061413c565b8051156142925760405161417381613e04565b604081527f4142434445464748494a4b4c4d4e4f505152535455565758595a61626364656660208201527f6768696a6b6c6d6e6f707172737475767778797a303132333435363738392b2f604082015281516002928382018092116125c4576003918290046001600160fe1b03811681036125c4576141f5908594951b614053565b936020850193829183518401925b838110614241575050505051068060011461422e57600214614223575090565b603d90600019015390565b50603d9081600019820153600119015390565b85600491979293949701918251600190603f9082828260121c16880101518453828282600c1c16880101518385015382828260061c1688010151888501531685010151878201530195929190614203565b5060405161429f81613e3b565b6000815290565b80156125c4576000190190565b7f3c7376672077696474683d2732393027206865696768743d273530302720766981527f6577426f783d2730203020323930203530302720786d6c6e733d27687474703a60208201527f2f2f7777772e77332e6f72672f323030302f737667273e3c636972636c652063604082015262783d2760e81b606082015260630190565b61433f60ff9161400f565b04601081018091116125c4576000908072184f03e93ff9f4daa797ed6e38ed64bf6a1f0160401b818181101561447d575b50506d04ee2d6d415b85acef81000000008083101561446e575b50662386f26fc100008083101561445f575b506305f5e10080831015614450575b5061271080831015614441575b506064821015614431575b600a80921015614427575b6001908160216143df828701614053565b95860101905b6143f1575b5050505090565b600019019083906f181899199a1a9b1b9c1cb0b131b232b360811b8282061a835304918215614422579190826143e5565b6143ea565b91600101916143ce565b91906064600291049101916143c3565b600491939204910191386143b8565b600891939204910191386143ab565b6010919392049101913861439c565b6020919392049101913861438a565b604094500491503880614370565b61449660ff91613ff8565b04606481018091116125c4576000908072184f03e93ff9f4daa797ed6e38ed64bf6a1f0160401b81818110156145ce575b50506d04ee2d6d415b85acef8100000000808310156145bf575b50662386f26fc10000808310156145b0575b506305f5e100808310156145a1575b5061271080831015614592575b506064821015614582575b600a80921015614578575b600190816021614536828701614053565b95860101905b614547575050505090565b600019019083906f181899199a1a9b1b9c1cb0b131b232b360811b8282061a8353049182156144225791908261453c565b9160010191614525565b919060646002910491019161451a565b6004919392049101913861450f565b60089193920491019138614502565b601091939204910191386144f3565b602091939204910191386144e1565b6040945004915038806144c7565b60881c6145e7614039565b90815190815b6145f657505090565b600f811690601082101561465157600019830183811161463c57614635926f181899199a1a9b1b9c1cb0b131b232b360811b901a906124f69086614085565b90816145ed565b60246000634e487b7160e01b81526011600452fd5b60246000634e487b7160e01b81526032600452fd5b61466e614039565b90815190815b61467d57505090565b600f811690601082101561465157600019830183811161463c576146bc926f181899199a1a9b1b9c1cb0b131b232b360811b901a906124f69086614085565b9081614674565b6001600160a01b031680156146e357600052600360205260406000205490565b60405162461bcd60e51b815260206004820152602960248201527f4552433732313a2061646472657373207a65726f206973206e6f7420612076616044820152683634b21037bbb732b960b91b6064820152608490fd5b1561474157565b60405162461bcd60e51b815260206004820152601860248201527f4552433732313a20696e76616c696420746f6b656e20494400000000000000006044820152606490fd5b6000908152600260205260409020546001600160a01b03166147a981151561473a565b90565b6000818152600260205260409020546147cf906001600160a01b0316151561473a565b6000908152600460205260409020546001600160a01b031690565b156147f157565b60405162461bcd60e51b815260206004820152602d60248201527f4552433732313a2063616c6c6572206973206e6f7420746f6b656e206f776e6560448201526c1c881bdc88185c1c1c9bdd9959609a1b6064820152608490fd5b9061487093929161486061316884336148e7565b61486b8383836149fb565b614c40565b1561487757565b60405162461bcd60e51b81528061489060048201614894565b0390fd5b60809060208152603260208201527f4552433732313a207472616e7366657220746f206e6f6e20455243373231526560408201527131b2b4bb32b91034b6b83632b6b2b73a32b960711b60608201520190565b906001600160a01b0380806148fb84614786565b1693169183831493841561492e575b508315614918575b50505090565b614924919293506147ac565b1614388080614912565b909350600052600560205260406000208260005260205260ff60406000205416923861490a565b1561495c57565b60405162461bcd60e51b815260206004820152601c60248201527f4552433732313a20746f6b656e20616c7265616479206d696e746564000000006044820152606490fd5b156149a857565b60405162461bcd60e51b815260206004820152602560248201527f4552433732313a207472616e736665722066726f6d20696e636f72726563742060448201526437bbb732b960d91b6064820152608490fd5b614a1f91614a0884614786565b6001600160a01b03938484169391851684146149a1565b838216938415614bef57839182614b4c575090506008549085600052600960205281604060002055600160401b82101561251b57614a9e92614a8587614a6c856001899701600855613fc1565b90919082549060031b91821b91600019901b1916179055565b828603614b19575b50614a9786614786565b16146149a1565b7fddf252ad1be2c89b69c2b068fc378daa952ba7f163c4a11628f55a4df523b3ef60008481526004602052604081206001600160601b0360a01b9081815416905583825260036020526040822060001981540190558482526040822060018154019055858252600260205284604083209182541617905580a4565b614b22906146c3565b60406000878152600660205281812083825260205288828220558881526007602052205538614a8d565b858303614b5e575b50614a9e92614a85565b614b699192506146c3565b6000198101919082116125c457614a9e9284926000908882526020906007825260409182842054828103614bb8575b508a84528383812055868452600681528284209184525281205592614b54565b8785526006825283852083865282528385205488865260068352848620828752835280858720558552600782528385205538614b98565b60405162461bcd60e51b8152602060048201526024808201527f4552433732313a207472616e7366657220746f20746865207a65726f206164646044820152637265737360e01b6064820152608490fd5b9293919290803b15614d5957614c949460018060a01b039460405192839187630a85bd0160e11b9687855233600486015216602484015260448301526080606483015281806020998a956084830190613d98565b03916000988991165af1849181614d15575b50614d04575050503d600014614cfc573d614cc081613fa6565b90614cce6040519283613e56565b81528091833d92013e5b80519182614cf95760405162461bcd60e51b81528061489060048201614894565b01fd5b506060614cd8565b6001600160e01b0319161492509050565b9091508581813d8311614d52575b614d2d8183613e56565b81010312614d4e57516001600160e01b031981168103614d4e579038614ca6565b8480fd5b503d614d23565b505091505060019056fea2646970667358221220ec171a38aa184904a3708fe7426c9d60d356e113b6786fb155f9f8084c0a679164736f6c63430008150033",
    "linkReferences": {}
  },
  "methodIdentifiers": {
    "_domainCheck(uint256[])": "3827fc6f",
    "addressIndexInSignals()": "312033bf",
    "approve(address,uint256)": "095ea7b3",
    "balanceOf(address)": "70a08231",
    "bytesInPackedBytes()": "bec47aea",
    "getApproved(uint256)": "081812fc",
    "isApprovedForAll(address,address)": "e985e9c5",
    "mint(uint256[8],uint256[3])": "16eb903b",
    "name()": "06fdde03",
    "ownerOf(uint256)": "6352211e",
    "pubKeyHashIndexInSignals()": "14c52251",
    "safeTransferFrom(address,address,uint256)": "42842e0e",
    "safeTransferFrom(address,address,uint256,bytes)": "b88d4fde",
    "setApprovalForAll(address,bool)": "a22cb465",
    "supportsInterface(bytes4)": "01ffc9a7",
    "symbol()": "95d89b41",
    "tokenByIndex(uint256)": "4f6ccce7",
    "tokenDesc(uint256)": "3e098490",
    "tokenIDToName(uint256)": "4f79d38a",
    "tokenOfOwnerByIndex(address,uint256)": "2f745c59",
    "tokenURI(uint256)": "c87b56dd",
    "totalSupply()": "18160ddd",
    "transferFrom(address,address,uint256)": "23b872dd",
    "usernameIndexInSignals()": "c9929db9",
    "usernameLengthInSignals()": "61e80718",
    "verifier()": "2b7ac3f3"
  },
  "id": 72
}